:020000040800F2
:10000000381000204D01000891220008C11B000893
:1000100000000000000000000000000000000000E0
:100020000000000000000000000000004125000862
:1000300000000000000000000B010008452500083A
:100040005F0100085F0100085F0100085F01000810
:100050005F010008810200085F0100085F010008DD
:100060005F0100085F0100085F0100085F010008F0
:100070005F0100085F0100085F0100085F010008E0
:100080005F010008392600085F0100085F010008D1
:100090005F0100085F0100085F0100085F010008C0
:1000A0005F0100085F0100085F0100085F010008B0
:1000B0005F0100085F0100085F010008D9360008F1
:1000C0000348854600F0CAF800480047AD390008EB
:1000D00038100020084B19680868203080F3098820
:1000E000022080F31488BFF36F8F3FBCAE4608BC7C
:1000F00004BC62B61847000074000020EFF31080C3
:1001000072B6704780F310887047EFF309800E4B8A
:100110001A6820381060F0C044464D4656465F4687
:10012000F0C008B572B603F023FE62B60CBC1168CD
:1001300008681030F0C8A046A946B246BB4680F316
:1001400009882038F0C81847740000200448804708
:1001500004480047FEE7FEE7FEE7FEE7FEE7FEE7AE
:10016000DD250008C100000830B50B46014600201F
:100170002022012409E00D46D5409D4205D31D46AD
:100180009540491B2546954040191546521E002DA5
:10019000F1DC30BDF0B51FB40646002082B0054644
:1001A0004024019100901BE0019922460F46304601
:1001B00000F020F8049A059B801A994110D310464C
:1001C0001946224600F039F8361A8F410197224627
:1001D00001200021009F00F030F838184D410090B8
:1001E0002046641E0028DFDC019B00982946324629
:1001F00007B0F0BD10B5202A04DB0846203AD040F5
:10020000002110BD0B46D340D0402024A21A9140BB
:100210000843194610BDD2B201E00270401C491ECD
:10022000FBD270470022F6E710B513460A46044693
:100230001946FFF7F0FF204610BD10B5202A04DB59
:100240000146203A9140002010BD914020239C1A85
:100250000346E3401943904010BD0000064C0125C1
:10026000064E05E0E36807CC2B430C3C984710345E
:10027000B442F7D3FFF728FF0C4C00082C4C0008C1
:1002800010B5022000F0A0F910BD704700B50022A3
:1002900000F002F800BD000030B50E4B05465C7A58
:1002A0000120012C15D8587A00241C54587A80005B
:1002B000C01845605D7A184608302A54587A421CA6
:1002C0005A72303008703A2048702F208870CC70F5
:1002D000002030BD3C090020F8B50025044620343C
:1002E0000095227D012A3BD0012323750268966880
:1002F000760776D43F4F4E68BE4254D0966A0F7848
:10030000BB401E4396620123C26A1B079A421FD05C
:10031000012A1DD0022A1BD0032A19D0042A17D083
:10032000052A15D0062A13D0072A11D002688B6837
:1003300056697607760FB3420AD05369DB08DB00B3
:100340005361006842690B7A5B075B0F1A43426195
:100350000868102806D0112804D0122802D045E0E1
:100360000220F8BD244B9A68102809D011280AD021
:100370000120000602439A600868102806D035E084
:100380000120C005F6E701208005F3E71C481B4962
:100390000068FFF7E9FE0A21484300E0401E009094
:1003A0000028FBD122E0906A0E78B3409843906217
:1003B0000868102803D0112801D0122816D10E4A3F
:1003C0009168102807D0112808D001200006814329
:1003D00091600BE005E00120C005F8E701208005F1
:1003E000F5E7816B202211438163012500202075F0
:1003F0002846F8BD011000000027014040420F00D0
:1004000070000020F8B500250446002805D0A06B38
:1004100026462036002802D007E00120F8BD002043
:10042000E0633075204600F0A9F8A06B1022C006EA
:10043000002870DB2068816849076CD4A16B130128
:10044000994302231943A16381688907890F012910
:1004500005D10168C9070FD1C16809040CD4C1686E
:1004600018239943A3681943C16020680169636830
:1004700089008908194301612068C1683D4B194012
:10048000C160207E8103607EC0030143A07E4303E0
:100490001943A36A012B02D001231B0300E00023B0
:1004A0001943E36819432369022B09D00023194338
:1004B0003379E67E5B0019430123012E02D00AE066
:1004C0000423F4E7002827D0A06B20263043A06344
:1004D000E06B1843E063E0690646FF3EC23E02D08F
:1004E000266A304301432068C6680E43C660012671
:1004F000E06A3607B04213D0012811D002280FD08D
:1005000003280DD004280BD0052809D0062807D0D1
:10051000072805D010E028E0012000040143DAE7B5
:1005200020684669F608F600466120684669A78D8E
:100530007F077F0F3E4346612068C0680E4E304003
:10054000884207D10020E063A06B80088000401C37
:10055000A06308E0A06B022188431043A063E06B16
:100560001843E06301252846F8BDA06B1043A06343
:10057000F8E700001902FEFFE7FF3F8308B50068B7
:100580000549884207D10548826941150A438261BD
:1005900080690840009008BD00240140001002401E
:1005A00070B5044600F0D2F80546601C02D004483D
:1005B0000078241800F0CAF8401BA042FAD370BD9E
:1005C000640000207047000010B504494A690242E7
:1005D00002D04861FFF7F6FF10BD000000040140A3
:1005E000F8B5002292E001249440A44623407DD037
:1005F0004C68022C01D0122C0CD1D408A40026186F
:10060000356A5407E40E0F27A740BD430F69A74082
:100610002F433762066855000324AC400F79A64388
:10062000BF07BF0FAF40374307604E68012E05D0AC
:10063000022E03D0112E01D0122E0ED18668CF6863
:10064000A643AF403743876047686646B7430E7995
:10065000F606F60F96403E434660C668A6438C6891
:10066000AC403443C4604C68E4004ED52A4CA569C4
:1006700001263543A561A469950834400094274CB0
:10068000AD002F19BD689407240F0F26A640B5436F
:100690000926F606B04201D1002614E0204EB042F1
:1006A00001D101260FE01F4EB04201D102260AE01F
:1006B0001D4EB04201D1032605E01C4EB04201D1CF
:1006C000042600E00526A6402E43BE60184D2C6887
:1006D0004E689C43F60300D51C432C606C684E6842
:1006E0009C43B60300D51C436C6000E00DE0AC6891
:1006F0004E689C43F60200D51C43AC60EC684E6823
:100700009C43B60200D51C43EC60521C0B681C468F
:10071000D44000D067E7F8BD00100240000001405F
:100720000004004800080048000C00480010004881
:10073000000401400069084000D001207047002AF1
:1007400001D0816170478162704700000148806874
:10075000704700006400002010B5040003D0606FF3
:10076000002802D007E0012010BD002170200155B3
:10077000204601F0F5F924206067206801684908E7
:1007800049000160204602F03FF80128ECD0606A81
:10079000002802D0204601F0A1FF2068416809220C
:1007A000D202914341602068816822229143816096
:1007B0002068816808221143816020680168012255
:1007C00011430160204601F0EFFF10BD70B50246F5
:1007D00040325378202B1CD11378012B19D00124DF
:1007E00014702423537003681D68A5431D600368BB
:1007F0001D682603B5431D6003681D680D431D6019
:1008000000680168214301602020507000201070B2
:1008100070BD022070BD70B5024640325378202B67
:100820001BD11378012B18D0012515702423537088
:1008300003681C68AC431C6003681C680F26360202
:10084000B44309022143196000680168294301602B
:10085000202050700020107070BD022070BD00007C
:1008600070B5040006D0254640356878002600287B
:1008700002D005E0012070BD2E70204600F0F0F897
:1008800024206870206801684908490001600F2130
:100890006068090688432168086120688268012130
:1008A000C9038A438260E0680128A06808D0212239
:1008B0009202104322689060E068022802D005E0AE
:1008C0000843F7E701202268C002506020684268B0
:1008D0000F4B1A4342602068C2688A43C260616954
:1008E00020690843A169090208432168C860216A98
:1008F000E06908432168086020680168012211430B
:1009000001606664202068702663AE70002070BDB0
:1009100000800002FFB5054604464035687883B084
:10092000202872D10C98002814D00D98002811D0DE
:100930002878012869D001202870FFF707FF0746B3
:10094000012200901923D103204601F0CBF90028A1
:1009500071D103E00120400260646CE021206870E6
:100960004020A870002666640C9860620D9860852F
:1009700066630E980090019704A90EC9204601F005
:100980006DF9002801D02E7055E0608DFF2805D943
:10099000FF22228501231B06009606E0608D20853C
:1009A0000096208D0123C2B25B062046049901F017
:1009B00085F93A4620460E9901F0E1F900283AD12E
:1009C000606A216800788862606A401C6062608D9D
:1009D000401E6085208D401E80B22085618D0029DB
:1009E0001FD000281DD100970022802120460E9B99
:1009F00001F078F900281ED1608DFF2806D9FF226A
:100A0000228501231B06009607E024E0608D2085E7
:100A10000096208D0123C2B25B062046049901F0A6
:100A20004DF9608D0028C4D13A4620460E9901F058
:100A300080F9002802D0012007B0F0BD20682021F5
:100A4000C16120684268054B1A4042606970AE700F
:100A50002E700020F0E70220EEE7000000E800FE24
:100A600010B586B0044614216846FFF7DBFB124937
:100A7000206888421DD1114C616901208004014326
:100A80006161616901400591C0200090122001213F
:100A90000190032002910491039069460848FFF7F2
:100AA0009FFDE169012040050143E161E1690140E9
:100AB000059106B010BD0000005400400010024037
:100AC0000004004870B504000FD021681348086086
:100AD00021681348086003CC41602068083C216805
:100AE0008860FFF733FE054608E0012070BDFFF780
:100AF0002DFE401B302801D9032070BD2068C0683E
:100B00000028F4D120680269E1688A4201D00161BD
:100B100001E004490160002070BD0000CCCC000061
:100B200055550000AAAA0000024881680278891879
:100B3000816070476400002010B5064801681022EB
:100B400011430160002000F007F800F041F8002098
:100B500010BD00000020024000B5014687B0002211
:100B6000112000F059F8112000F04AF81348C2692A
:100B700010210A43C261C0690840059004A9684673
:100B800000F054FB00F06EFB0D49FFF7EDFA0E4943
:100B90000C4A0A600D4A401ECA6048600020086185
:100BA0008860084600F076FE002802D0012007B0D9
:100BB00000BD054800F089FEF9E700000010024082
:100BC00040420F0000100040FC080020E703000036
:100BD00008B50A4881690122114381618169114088
:100BE0000091C26901040A43C261C0690022084041
:100BF00003210090481F00F00FF808BD00100240CC
:100C0000002805DBC106C90E0120884001490860A3
:100C10007047000000E100E010B502F0E7FD10BDF4
:100C200070474A01121810B5FF30FF300230D26B06
:100C3000006F01F0CBFF10BD4A01121810B5FF3054
:100C4000FF32FF3001320230D26B006F02F021F828
:100C500010BD70B50A074368120F9A4201D90120EE
:100C600070BD4A07CD09520F510109180123002414
:100C7000002D02D028314B7002E0FF3129314C7039
:100C80008C700A701122520185182A7A012A06D026
:100C90002B72006802F0F4FB2C72002070BD022061
:100CA00070BDF8B54F07CC097F0F790109180126EF
:100CB0000025002C02D028314E7002E0FF3129318E
:100CC0004D700F700A61CB704A78002A00D0CF8136
:100CD000022B00D10D71112252018418227A012AAF
:100CE00006D02672006802F09FFA28462572F8BDE9
:100CF0000220F8BD70B54C070D46640F610109185C
:100D0000FF3129318B614A610022CA614A700C703F
:100D10006A07006802F00EFC002070BDF8B50446BA
:100D20000D4648076168400F884201D90120F8BD8F
:100D3000E90900270122002904D0410109192831BD
:100D40004A7004E069010919FF3129314F708A7036
:100D50000870112040012618307A012806D032721E
:100D6000206802F0CBFB680702D007E00220F8BD44
:100D7000232109016118206802F080FB37720020EE
:100D8000F8BD70B54C070D46640F610109180B647E
:100D9000CA6300224A64012228314A700C706A0733
:100DA000006802F0C7FB002070BDF8B5044600687B
:100DB00002F09AFC000402D5204601F06BFA20688C
:100DC00002F092FC40050DD5206840308188012258
:100DD000920291438180204600F0AAF8002120462B
:100DE00000F0D8F8206802F07FFC400406D52068A7
:100DF000403081880122920391438180206802F073
:100E000073FC800406D5206840308188012252039B
:100E100091438180206802F067FCC10413204001E7
:100E200004260827251800291CDA2068403001888C
:100E3000B1430180206840300188B943018028789F
:100E4000012805D10020287001462046FFF7E8FE62
:100E5000204600F081F8206840308188012212038A
:100E600091438180206802F03FFC000519D520687D
:100E70004030018839430180206840308188012258
:100E8000D202914381802068403001883143018043
:100E9000206802F029FCC043C00402D5204600F0BF
:100EA00097F8206802F020FC00060BD5206840303F
:100EB0008188802291438180287800281ED0204696
:100EC00000F086F8206802F00FFC800509D5206844
:100ED000403081880122520291438180204600F0F7
:100EE00051F8206802F000FCC00506D520684030AB
:100EF0008188FF22013291438180F8BD2068403013
:100F000001883143018020684030018839430180E5
:100F10000120287020684030808A3C2180080840E9
:100F200099218900085101212046FFF779FEC9E780
:100F300070B5044680680125022801D0FFF7A5F9A5
:100F4000FF34FF3402342946206F01F049FF206F3F
:100F500001F007FF70BD000010B50446806900284D
:100F600006D00748016906229143016101F0FCFAAD
:100F7000FF34FF340234206F01F01AFF10BD00006F
:100F800000ED00E0FF3010B5FF300230006F01F0DF
:100F900019FF10BD10B5112252018418227A012ABE
:100FA00009D00122227224221154006802F0B4FBFD
:100FB0000020207210BD022010BD10B527210901AC
:100FC0000A58232109014118104601F016FF10BDEF
:100FD00010B50446FF30FF300230006F01F047FFCC
:100FE000A069002804D00348016906221143016169
:100FF00010BD000000ED00E0F8B504460068434D68
:10100000C00353D5E8690026C00007D4E969280465
:101010000143E961E9690140012600913C4801680A
:10102000C90510D40168821511430160FFF78EFBDA
:10103000074604E0FFF78AFBC01B642823D8344826
:101040000068C005F6D5286A0321090208401FD0B0
:1010500062680A4082421BD0286A2A6A88430121BA
:1010600009040A432A622A6A8A432A622862C0075C
:101070000ED0FFF76BFB074607E0FFF767FBC11BCE
:101080002448814201D90320F8BD286A8007F4D59D
:10109000286A032109028843616808432862002EF8
:1010A00004D0E969012000078143E9612078C00785
:1010B00005D0286BA1688008800008432863207849
:1010C000800706D5286B032109048843E16808439B
:1010D00028632078800605D5286B10218843216974
:1010E000084328632068800305D5286B8021884346
:1010F000A169084328632088400505D5286B402155
:1011000088436169084328630020F8BD001002404D
:101110000070004088130000F8B50D46040060D050
:101120003D480068C007C00FA8420AD23A4801688B
:1011300049084900294301600068C007C00FA84260
:101140004FD12068354E81070CD5400704D5706813
:1011500007210902084370607068F0218843A16884
:10116000084370602078C0072BD06068012810D039
:10117000022811D0032812D031688907002930DAFB
:1011800071688908890001437160FFF7DFFA07463B
:1011900010E031688903F1E731688901EEE7716B8E
:1011A000C903EBE7FFF7D2FAC11B1D48814201D901
:1011B0000320F8BD70680C210840616889008842EE
:1011C000F0D115480168C907C90FA9420BD90168B8
:1011D00049084900294301600068C007C00FA842C0
:1011E00001D00120F8BD2078400706D5706807219E
:1011F00009028843E1680843706000F043F87168B1
:10120000084A0906090F515CC840074908600020D8
:10121000FFF7A2FC0020F8BD0020024000100240B1
:1012200088130000F44B00087000002010B507225E
:1012300002600A4A53689B079B0F43605368F0247F
:1012400023408360526807231B021A40C26004488F
:101250000068C007C00F086010BD00000010024009
:10126000002002400448054900684968044A4905CD
:10127000490F515CC84070477000002000100240C8
:10128000044C000830B519A00FC889B06C460FC4D3
:101290001AA00FC80FC41D4B59680C200A46024003
:1012A0001B48042A05D01B4D082A04D00C2A00D163
:1012B000284609B030BD8A02120F6C46A45CDA6A77
:1012C00004AB1207120FC9039A5C890F022901D0DF
:1012D000032901D0002301E0002328460021FEF766
:1012E00059FF214602F05CFAE3E70000020304051F
:1012F000060708090A0B0C0D0E0F1010010203045B
:1013000005060708090A0B0C0D0E0F10001002400D
:1013100000127A00006CDC02FEB504006FD0207869
:10132000F94EFA4DC00747D068680007800F0128C2
:1013300018D068680007800F022804D16868C003CD
:10134000800F02280ED06068012812D00121890484
:10135000002801D0052816D02868B04328602868E6
:10136000884308E02868800326D560680028D5D027
:1013700022E02868304328606068002810D0FFF71A
:10138000E5F9074608E0286808432860F1E7FFF719
:10139000DDF9C01B642870D828688003F7D50BE0FE
:1013A000FFF7D4F9074604E0FFF7D0F9C01B642823
:1013B000F1D828688003F7D4207880073FD5686883
:1013C0000007800F14D068680007800F022804D13E
:1013D0006868C003800F01280AD0E06800282868E8
:1013E0001ED0012108432860FFF7B0F907460CE042
:1013F000286880070CD5E068012800D108E080E16A
:10140000FFF7A4F9C01B0228C5D828688007F7D5C4
:101410002868F82188432169C900084328600EE044
:10142000400840002860FFF791F9074604E0FFF705
:101430008DF9C01B0228AED828688007F7D4207821
:10144000000723D5E0690028686A0FD0012108430E
:101450006862FFF77BF9074604E0FFF777F9C01BE6
:10146000022898D8686A8007F7D50FE04008400046
:101470006862FFF76BF9074605E0CAE0FFF766F917
:10148000C01B022887D8686A8007F7D42078042711
:101490004007002861DA00200190E869C00008D404
:1014A000E969B8060143E961E96901400120009159
:1014B000019097480168C90511D40168821511434C
:1014C0000160FFF743F9009005E0FFF73FF900994D
:1014D000401A642898D88E480068C005F5D5A068E1
:1014E00001280AD0002801D0052811D0286A400818
:1014F00040002862286AB84302E0286A01210843B4
:101500002862A068002812D0FFF720F900900AE0B6
:10151000286A38432862F0E7FFF718F90099411A62
:101520007C48814275D8286A8007F5D50DE0FFF721
:101530000DF9009006E0FFF709F90099411A754886
:10154000814266D8286A8007F5D40198002804D023
:10155000E869012109078843E8612078C00635D58C
:10156000606901280CD0401D686B24D03843686343
:10157000686B400840006863FFF7E8F8074622E020
:10158000686B38436863686B012108436863FFF741
:10159000DDF8074604E0FFF7D9F8C01B022838D869
:1015A000686B8007F7D5686BF8218843A169C9008B
:1015B000084368630AE0B8436863F4E7FFF7C6F8D6
:1015C000C01B022825D8686B8007F7D420788006D6
:1015D00037D568680007800F032813D068680007B4
:1015E000800F022804D16868C003800F032809D047
:1015F000206A0028686B16D030436863FFF7A6F8AE
:1016000006460CE0686BC0031BD5206A012878D120
:1016100017E05BE0FFF79AF8801B022856D8686B4A
:10162000C003F7D50DE0B0436863FFF78FF80646B7
:1016300004E0FFF78BF8801B022847D8686BC003D3
:10164000F7D4606A002867D069680907890F022902
:1016500042D001273F060228286805D0B8432860F9
:10166000FFF774F8044633E0B8432860FFF76EF8DC
:10167000064604E0FFF76AF8801B022826D828688F
:101680008001F7D4E86A216B000900010843E86291
:10169000A16AE06A084369687B22D2039143084348
:1016A0006860286838432860FFF750F8044604E073
:1016B000FFF74CF8001B022808D828688001F7D5EE
:1016C0002AE0FFF743F8001B022801D90320FEBDE2
:1016D00028688001F5D41FE00128F8D06868E96A1D
:1016E0000322D203A36A02409A420AD10907226B5D
:1016F000090F914205D10F2189040840E16A88420F
:101700000AD00120FEBD00000000010000100240D0
:1017100000700040881300000020F3E7F8B50400D3
:1017200007D0002625464035A662687F002802D0F3
:1017300005E00120F8BD2E77204600F04BF802228C
:101740006A77206801684023994301600723E068B5
:101750001B02984201D9002101E0012109030F2752
:101760003F02B84202D0984200D0A662276B002FF9
:1017700005D1984201D9226301E001202063A268CB
:1017800060686369104322691A4310430123A26908
:101790005B021A401043E2691043226A1043A26AB6
:1017A000104322681060626B606AA36910431B0CCF
:1017B0000427E2683B401A4310430843216848600D
:1017C0002068C1697A029143C16126660120687769
:1017D0000020F8BD10B586B0044614216846FEF717
:1017E00021FD1149206888421CD11048826981146A
:1017F0000A43826182690A400592426949010A43AB
:101800004261406908400590E0200090022001906C
:101810000021032003900291049109206946C0062B
:10182000FEF7DEFE06B010BD0030014000100240A1
:1018300070477047F0B502462032137F012B21D04C
:10184000012616770223537703685D689C6870272A
:10185000BD430F682F435F6000680B4B984208D070
:10186000B307984205D0094B984202D0084B9842E2
:1018700004D1802349689C4321438160567700202E
:101880001077F0BD0220F0BD002C014000040040A4
:101890000040014070B5040005D025462035687F22
:1018A000002802D006E0012070BD002028772046E5
:1018B00000F00AF802206877211D206800F0C4FEBD
:1018C00001206877002070BD70470168CB68012255
:1018D0001343CB60006881684907490F062902D08D
:1018E000016811430160002070470000F8B50C4604
:1018F000050005D02E462036707F002802D006E075
:101900000120F8BD00203077284600F03DF8022085
:10191000707728688168194A11408160291D2868FC
:1019200000F092FE286881688369026A27680F4385
:10193000BC461349A7690B403F021F43A168114BE6
:101940003943E76919403F020F43E36821693B438C
:10195000276A09013F0339431943AA239A4363685D
:1019600064696746240114432343876028688161C2
:1019700028680362012070770020F8BDF8BFFFFFE0
:10198000FCFCFFFF0303FFFF10B586B004461421E3
:101990006846FEF747FC01212068890788421AD172
:1019A0000E48C16901221143C161C169114005910D
:1019B000436951040B43436140696B4608400590FD
:1019C0000320122107C303900220049009206946D6
:1019D000C006FEF705FE06B010BD00000010024074
:1019E000704770B50446006801690025C94389073E
:1019F000002915DBC168C943890711D4E91E0161BB
:101A000001202077206880698007204602D0FFF7F8
:101A1000E7FF04E000F096F8204600F094F8257700
:101A200020680169C943490717D4C168C9434907F8
:101A300013D40421C9430161022020772068806902
:101A40008005800F204602D0FFF7CAFF04E000F0B7
:101A500079F8204600F077F8257720680169C943B6
:101A6000090716D4C168C943090712D40821C9431C
:101A70000161042020772068C0698007204602D0D9
:101A8000FFF7AEFF04E000F05DF8204600F05BF8E1
:101A9000257720680169C943C90617D4C168C943BD
:101AA000C90613D41021C94301610820207720689A
:101AB000C0698005800F204602D0FFF791FF04E047
:101AC00000F040F8204600F03EF8257720680169D4
:101AD000C943C90708D1C168C943C90704D1891ED0
:101AE0000161204600F030F820680169C943090609
:101AF00009D4C168C943090605D48021C9430161DD
:101B00002046FFF795FE20680169C943490609D4BC
:101B1000C168C943490605D44021C9430161204633
:101B200000F01CF820680169C943890609D4C1681E
:101B3000C943890605D42021C94301612046FFF726
:101B400078FE70BD7047704710B500680249884242
:101B500001D1FEF7E9FF10BD001000407047000002
:101B600010B586B0044614216846FEF75BFB1249A7
:101B7000206888421DD111488269012189030A43E6
:101B8000826182690A4005924269C9000A43426142
:101B90004069084005900812009012200190012130
:101BA000032003900291049109206946C006FEF7C4
:101BB00017FD06B010BD00000038014000100240C3
:101BC000FEE701688A69D243920701D400228A6243
:101BD00000688169C943C90703D0816901221143A3
:101BE00081617047F8B504460068174680690E4663
:101BF000C043C0062DD42546403520688069C043C7
:101C0000800612D5701CF8D0FEF7A0FDC01BB042B4
:101C100001D8002EF1D1616C20200143616468700D
:101C20000020A87028700120F8BD21681020C8612C
:101C300020682026C6612046FFF7C3FF2068416860
:101C4000054A11404160606C0421084360646E7075
:101C5000E6E70020F8BD000000E800FEF8B5044605
:101C6000164615481D46DAB2C3020090079F20466B
:101C700000F024F83A462046069900F080F8002843
:101C800018D12846F5B2012809D02168300A8862A7
:101C90003A462046069900F072F800280AD12068DA
:101CA00085620097002280212046069B00F01AF8EA
:101CB000002800D00120F8BD00200080F0B50068A9
:101CC000059C4568660D8905890D054F1204114371
:101CD0003E431943B54321430D434560F0BD000029
:101CE000FF63FF03F8B51C4617460E46054609E09C
:101CF000601C07D0FEF72AFD0699401AA0420BD8B7
:101D0000002C09D028688169304688430FD0002014
:101D1000B842EDD00020F8BD696C20200143696411
:101D2000403568700020A87028700120F8BD01209F
:101D3000EEE770B516460D4604460FE032462946DA
:101D40002046FFF74FFF002801D0012070BDFEF7AD
:101D5000FDFC801BA84208D8002D06D020688069B1
:101D6000C0438006EAD4002070BD616C202001438E
:101D70006164403460700020A0702070E5E770B5A9
:101D800016460C46054611E0324621462846FFF726
:101D900029FF002801D0012070BD601C06D0FEF78D
:101DA000D5FC801BA04208D8002C06D0286880698A
:101DB000C0438007E8D4002070BD696C2020014337
:101DC0006964403568700020A8702870E3E700005F
:101DD000F0B51F4885B00421017006211D4F4170E8
:101DE0000024012001900020029066000390B85B5F
:101DF00000901748A500001D40596946FEF7F0FB0A
:101E00001348B95B001D40590122FEF798FC104DA4
:101E1000641C2878E4B2A042E3D8002426460127B7
:101E200010E00C4801966100083002970396405A72
:101E300000900748A100143040586946FEF7D0FBD7
:101E4000641CE4B26878A042EBD805B0F0BD000095
:101E500038000020E04B0008F8B50020054600904F
:101E60003EE000242E4F09E06000395A2D48A200C0
:101E700080580122FEF763FC641CE4B23078A04273
:101E8000F2D86800395A2748AA0080580022FEF785
:101E900056FC0520FEF784FB00241AE0204867006A
:101EA0000830C15B1F48A60010308059FEF742FC85
:101EB00000280CD11420FEF773FB19480830C15BD1
:101EC000184810308059FEF735FC00280FD0641CEC
:101ED000E4B21448001F4078A042DFD86D1CEDB278
:101EE000104E361F3078A842BBD80098F8BD0121AB
:101EF0000846A8400834009AA14010430143084C0A
:101F0000084D88B208341035009002E00520FEF735
:101F100047FBE15BA859FEF70DFC0028F6D0E4E78B
:101F2000E04B00083C00002070B504460F4D06E071
:101F3000FFF792FF00280CD11420FEF731FB002C94
:101F4000F6D0FEF703FC064608E0FFF785FF002801
:101F500001D0688070BD1420FEF722FBFEF7F6FB6F
:101F6000801BA042F1D30020688070BD38000020A3
:101F70000EB500211748009101910291144A416069
:101F800002608160012204230C300EC00170417098
:101F90008170FF23C170C233436003468160083300
:101FA000197102611838FEF72DFA002801D0FEF7EA
:101FB0006CF9102000900002019000040290694624
:101FC0000448FEF789F9002801D0FEF75EF90EBD3E
:101FD00000240140B404002010B504490448FEF771
:101FE00055F90249491E087010BD0000310000205B
:101FF0001C000020F0B587B014216846FEF712F9E6
:10200000424842690121C9040A43426142690A40C7
:1020100005924269C9000A43426142690A40059239
:10202000426949110A43426142690A400592426984
:1020300049000A434261406909270840FF060590AC
:10204000002214213846FEF77AFB0122114630485F
:10205000FEF775FB00222F492D48FEF770FB072085
:102060004003002401256A4631C269462A48FEF72A
:10207000B7FA032669462948009602950194FEF7AF
:10208000AFFA1420009002946946019503943846F3
:10209000FEF7A6FA08206A4631C269463846FEF7BE
:1020A0009FFA1C480294401C0090694601950394D5
:1020B0001748FEF795FA02200090194801906946EA
:1020C00002941348FEF78CFAA80300906946019623
:1020D00002940F48FEF784FAE803009001946946E1
:1020E00002940B48FEF77CFA30026A4631C2694618
:1020F0000748FEF775FA002203210520FEF78CFD44
:102100000520FEF77DFD07B0F0BD00000010024085
:1021100000040048040C00000008004800140048B7
:102120000000111010B513481149016012494160B7
:10213000002181600161416181610122C161C26050
:102140000162FEF78DFB002801D0FEF79EF800210A
:102150000848FEF73BFB002801D0FEF796F8002167
:102160000448FEF758FB002801D0FEF78EF810BD9A
:1021700000540040F40400200B02000010B5084891
:1021800006490160032141600649C1608160FEF794
:1021900099FC002801D0FEF778F810BD003000400F
:1021A00040050020FF0F000010B511480F490160E5
:1021B000FF21053141600021072281601202016187
:1021C000C2600122416152028261016241620822C1
:1021D00081620723C261C36242630163FFF79EFA13
:1021E000002801D0FEF751F810BD0000003001407A
:1021F0005005002010B58CB024216846FEF712F877
:10220000002401211348099489070A9412C004602C
:102210004460846004610120009001940290039462
:102220000690049405940794694608940948FFF7BA
:102230005DFB002801D0FEF728F8099409A905489C
:102240000A94FFF7F7FA002801D0FEF71EF80CB049
:1022500010BD0000B405002010B50C480A4901600B
:10226000E1214902416000218160C1600161816119
:10227000C1610822016242614162FEF76DFA0028E5
:1022800001D0FEF702F810BD00380140F40500202F
:1022900070470000FEB504462030019037E18A887F
:1022A00013071B0F009324D09E00815B0291090449
:1022B00072D5815B9C4A1140802211438153009862
:1022C00040010519FF352935287B002820687DD07D
:1022D00029788A00825A520479D55022125ACB00AA
:1022E000924912185918515A8F05BF0D70D02A897A
:1022F000C4E0D2062DD401888D4A11400122D203B8
:102300001143018020685021095A254628350918B3
:102310002878C20085481018085A8005800D60642E
:10232000E16B0818E06300212046FEF77AFC019873
:1023300000790028B2D0A8690028AFD101980079AF
:102340008021084321684031888101980021017172
:10235000DDE02546FF350288293513051DD5098A9C
:1023600009182878C2007148001D1018085A232146
:1023700083059B0DEB610901EA886118206801F073
:10238000B6F920680188684A114080221143018013
:102390002046FEF712FEBAE094E01104D8D5018879
:1023A000614A114080221143018020685021095A5E
:1023B0005E4E08182978361DC9008919405A8305D0
:1023C0009B0DEB6112D06969002902E038E049E019
:1023D00058E00BD0EA88206801F089F9E96968695A
:1023E0004018686100212046FEF726FC2068502135
:1023F000095A081881192869002807D03E2809D8E9
:102400004208C00700D0521C90020BE00888494ADD
:10241000104004E04209C00600D1521E9002012281
:10242000D2031043088020680188434A11400122EA
:102430001203514052005140404A1143018066E06E
:102440005021095A0A182978CB003849091D591812
:10245000515A8F05BF0D20D0EA883B46696901F0CB
:1024600046F91AE05022CB00125A30491218091DC1
:102470005918515A8F05BF0D04D06A893B466969C6
:1024800001F035F9297820688900425A284B8033B9
:102490001A402A4B40331A434252E869C019E86196
:1024A0006869C2196A61AB69002B02D02869B84219
:1024B00004D929782046FEF7BFFB03E0297820469F
:1024C000FEF718FC0298000621D50098216840010B
:1024D0008A5B0019164B1A400123DB031A438A5307
:1024E00021685022525A283052180178CB000F49E7
:1024F0005918515A8905890DC161426952184261C2
:1025000083690178002B20460AD0FEF73AFC206848
:10251000014640318A88120400D5C0E60020FEBD85
:10252000FEF77FFBF3E700008F0F000002040000BE
:102530000F8F0000FF8300008FBF0000808000002D
:102540007047000010B5FDF7D9FD044601F03CFCD2
:10255000002803D001200349000748602046FDF70A
:10256000D1FD10BD00ED00E070B598B03421684693
:10257000FDF758FE00241494159416941C210DA800
:102580001794FDF74FFE01253A2005950090102085
:1025900004900690C0020A9003208004039502264E
:1025A00007950B90089509960C946846FEF7B4FEC3
:1025B00007201490169401211596179414A8FEF77D
:1025C000ABFD05480D9011940F9513940DA8FEF7DF
:1025D00013FD18B070BD0000210002001248016810
:1025E0000122114301604168104A114041600168B5
:1025F0000F4A114001600168012292049143016079
:1026000041683F22120491434160C16A09090901EE
:10261000C162016B074A11400163416B49084900DF
:102620004163002181607047001002400CB8FF0830
:10263000FFFFF6FE2CFEFCFF10B50248FFF7D1F9B4
:1026400010BD0000FC080020F0B502681D4B0124FD
:10265000A4071D4D984203D0A04201D0A84203D147
:102660007026B2434E683243184E194F98420DD02F
:10267000A0420BD0A84209D0164CA04206D0B042CE
:1026800004D0B84202D0144CA04204D10324240246
:10269000A243CC6822438024A2434C6922430260B7
:1026A0008A68C2620A688262984206D0B04204D048
:1026B000B84202D0084A904201D109690163012160
:1026C0004161F0BD002C0140000400400040014089
:1026D00000440140002000400048014010B5818CBA
:1026E000C90707D001684A6801235B049A43836ADB
:1026F0001A434A60818C890707D501684A6801231B
:102700001B049A43C36A1A434A60818C490707D560
:1027100001684A6801239B049A43036B1A434A6089
:10272000818C090707D501684A680123DB039A43B6
:10273000436B1A434A60818CC90607D501688A68D1
:1027400001231B039A43836B1A438A60818C890699
:1027500007D501688A6801235B039A43C36B1A4358
:102760008A60818C490612D501684B6801221205E6
:10277000046C934323434B60016C914207D1016881
:102780004A6803235B059A43436C1A434A60818C71
:10279000090607D501684A680123DB04806C9A4367
:1027A00002434A6010BD0000F8B500250446C56725
:1027B000FDF7CCFF074620680068124E000709D5D8
:1027C00001213B46002249052046009600F0DCF836
:1027D00000280DD12068006840070BD501213B4639
:1027E000002289052046009600F0CEF8002801D08E
:1027F0000320F8BD20206067A067603425740020A6
:10280000F8BD0000FFFFFF01F8B5044682680069CB
:10281000E3690243606900211843024320680D46C2
:102820000368504E3340134303602068426803231B
:102830001B039A43E3681A434260226AA069024379
:10284000206883680B263602B34313438360464EE9
:1028500001222068454B1204B0420AD1186B800750
:10286000800F23D0012814D0022814D003281CD1B3
:102870000DE03F4EB04210D1186B03231B041840EB
:1028800014D0801A05D0801A05D090420DD10220B4
:102890000CE004200AE0082008E0364B984202D001
:1028A000354B984201D1002000E010200123E76958
:1028B000DB03324E9F422AD1002814D0022815D0C3
:1028C00004281BD008281FD0012508461038B04224
:1028D00042D82A4A0846521C104009074A0F0243B0
:1028E0002068C26039E0FEF7BDFC09E06168244A57
:1028F00048088018FDF738FC81B2E6E7FEF7C2FC15
:10290000616840004A08F4E761684808F1E7002878
:102910000DD002280ED0042814D0082818D0012584
:1029200008461038B04217D82068C16015E0FEF79D
:1029300099FC09E06168134A48088018FDF714FC07
:1029400081B2EDE7FEF79EFC61684A081018F5E7D2
:1029500061684808C018F1E701250020206660661C
:102960002846F8BDF369FFEF00380140001002402F
:102970000044004000480040004C0040EFFF0000D1
:102980000024F40000127A00FFB581B006461F460D
:10299000044660360A9D37E0681C35D0FDF7D6FE48
:1029A000C01BA84221D8002D1FD02068016849070C
:1029B0002AD5C069C043000526D401202168C00281
:1029C000086220680168FF22A132914301602068FB
:1029D000816849084900816020206067A067E0673E
:1029E00000203074032005B0F0BD20680168FF228C
:1029F000A1329143016020688168490849008160E3
:102A000020206067A067EBE72068C16902988843CF
:102A100005D0002003998842BED00020E3E70120C2
:102A2000F8E7052210B5D2018218526B5268904720
:102A3000002010BD134610B50A46002100F087F9AA
:102A4000002010BD134610B50A46002100F018FA08
:102A5000002010BD10B50446802100F0FEF90021D1
:102A6000204600F0FAF910BD052110B5CA01821800
:102A7000002351611A46194600F069F9002010BD83
:102A800010B50524E401022304196361C2611346F1
:102A900002620A46002100F0F3F9002010BD052271
:102AA00010B5D20104218218002351611A4619463B
:102AB00000F0E6F9002010BDF8B50D4604460020F0
:102AC00069460880698805200A0AC0012018130099
:102AD00000F07EFE0844050B184444394144006B65
:102AE000237C02686946184617E0217C0226406B69
:102AF000002905D0C16A684688470146467039E01A
:102B0000816AF8E7C9B20B0000F062FE06040A1100
:102B100014171A28006B426804E09047014629E028
:102B2000006B8268002A19D0207C6946F5E7006BAB
:102B3000C268F7E7006B0269F4E7006B4269F1E7EE
:102B4000006B8269EEE7217C002907D1406B416B65
:102B500068468847E2E7217C002904D029462046C0
:102B6000FFF778FFF8BD406B016B68468847072286
:102B7000014642706846008800280AD0EA88002A88
:102B80000AD0824200D90246684602802046FFF7FA
:102B900077FFE8880028E5D12046FFF780FFF8BDE1
:102BA00001460020002904D0012901D0022901D0CA
:102BB0000220704701207047052210B5D20180180D
:102BC000006CFEF746F8FFF7EBFF10BDF8B50646C0
:102BD0000520C00134181346002908D0606B4269F3
:102BE000002A02D0207F03284FD00220F8BD3546AE
:102BF00060691435022804D0042839D0002837D061
:102C00003AE02F69E868B84207D9C01B82B2E86091
:102C100019463046FFF716FF12E0AD6839462846E0
:102C2000FDF7A2FA002912D1BD4210D3A069854256
:102C30000DD2002211463046FFF704FF0020A061AC
:102C400000231A461946304600F081F814E0606B04
:102C5000C168002904D0207F032801D1304688476D
:102C60008021304600F0F9F83046FFF7FDFE03E022
:102C70008021304600F0F1F815204001301801782D
:102C8000012904D10021017001E030469047002065
:102C9000F8BD70B505460520C0012B181646002961
:102CA00008D0586B8269002A02D0187F03282DD0E3
:102CB000022070BD2C46FF3458695534032802D0D9
:102CC00005281CD024E02169E06888420AD9431A0B
:102CD000E3608B4200D30B469AB231462846FFF799
:102CE000A9FE15E0586B0169002904D0187F03285C
:102CF00001D1284688472846FFF7D1FE08E000208A
:102D000001465861284600F0A8F801E0284690479F
:102D1000002070BD0523DB01CA09C0184906006CFC
:102D2000090D0818002A01D0203001E0FF302130C1
:102D3000807A704710B51C460523DB01C018134686
:102D4000006C2246FDF7ADFFFFF72AFF10BD10B55E
:102D50000524E4010019006CFDF7CCFFFFF720FF0C
:102D600010BD70B50022044640231146FFF7E2FF74
:102D7000E01D4026F9300125466685653346002270
:102D800080212046FFF7D6FF0520C001666220188B
:102D9000A56105770021416161604162816B002975
:102DA00004D0406B0021426820469047002070BD4F
:102DB0000521C9014018017F042901D1417F017714
:102DC00000207047052110B5C90141180A7F032A68
:102DD00004D1496BC969002900D08847002010BD83
:102DE000017400207047052210B5D2018018006CD4
:102DF000FEF7D0F8FFF7D4FE10BD70B5054655209C
:102E0000C0002818044600F045F80520C001012143
:102E100028184161C18D8161152040012818017A6F
:102E2000C806C00E0AD001280DD0022810D0C9094A
:102E3000C901284600F011F8002070BD214628463F
:102E400000F08EF8F8E72146284600F0C3F9F3E7D2
:102E50002146284600F009F9EEE7052210B5D20117
:102E60008018006CFDF75AFFFFF79AFE10BD052190
:102E7000C9014018017F4177042101770020704784
:102E800010B50524E4010019006CFDF77AFFFFF787
:102E900087FE10BD0A7802704A784270CB788A7833
:102EA0001B02D21842804B790A791B02D218828009
:102EB0008A79C97909025118C1807047052210B575
:102EC000D2018218526B0224002A04D01268904763
:102ED000002800D10024204610BD000070B50E4629
:102EE00089781E4D04462970012904D931462046AF
:102EF000FFF7B0FD70BD0520C0012018027F022A37
:102F00000AD0032A0ED031462046FFF7A3FD2978C8
:102F10002046FFF786FD70BD002913D003226160B3
:102F200002770AE0002911D0606888420AD0C1B255
:102F30002046FFF776FD297861602046FFF7BEFF47
:102F40000228D3D02046FFF7AAFD70BD02220277E7
:102F500020466160FFF765FDF4E70000B000002047
:102F6000F8B5002200920A7860231A400523DB019D
:102F7000C418002A07D0202A01D0402A6AD1626BE7
:102F80009268904768E04D78002201262B0000F0FF
:102F90001FFC0A3F5A6155610906612C2961FFF740
:102FA0008BFD59E005468888002819D1C88800287B
:102FB00016D14888802813D24706207F7F0E032829
:102FC0000ED0A77739462846FFF70DFF2846FFF7B2
:102FD00066FD002F02D0022020773DE026773BE0FF
:102FE000284637E0FFF77AFF36E0CB88012B31D156
:102FF000237F012B04D0022B02D0032B2AD104E023
:10300000826001220146083115E00122011D12E013
:10301000227F012A03D0022A01D0032A1AD1CA88AA
:10302000022A17D1C660616A002901D00321C1605C
:10303000014602220C31FFF723FD0DE049880129EA
:103040000AD166620EE0237F012B07D0022B05D048
:10305000032B03D0FFF7FEFC0098F8BD4988012937
:10306000FAD16262FFF71BFDF6E7F8B50A4613785E
:1030700004461D46602003400520C0010027097951
:103080002018002B09D0202B01D0402B77D1406B8A
:1030900011468368204698479AE06B069B0F012BE8
:1030A00007D05378002B3BD0012B2BD0032B66D1BC
:1030B00005E0406B1146836820469847F8BD007FC5
:1030C000022802D003287FD10BE000297CD0802980
:1030D0007AD02046FFF7C1FE80212046FFF7BDFED3
:1030E00076E05088002809D1002907D0802905D032
:1030F000D088002802D12046FFF7AFFE2046FFF718
:10310000CEFC65E0007F0228DFD003285CD1508828
:1031100000285DD14806F1D02046FFF74DFDEDE7D0
:10312000007F0026022802D003284DD116E0002996
:1031300001D0802948D1C80906D04806400E142184
:1031400048430119143106E04806400E1421484353
:103150000119FF31553102220E6031E0C8090FD04C
:103160000807000F142358430019806900282BD04A
:103170004806400E142250430519143511E023E08F
:103180000807000F142358430019FF300130806DE9
:10319000002819D04806400E142250430519FF3567
:1031A0005535002909D0802907D02046FFF7B2FD08
:1031B000002802D00120286000E02E60022229466B
:1031C0002046FFF75DFC03E011462046FFF742FC76
:1031D0003846F8BD70B505460A7860200C460240B6
:1031E00003D0202A01D0402A19D10520C001281877
:1031F000027F012A03D0022A01D0032A0FD12179AC
:1032000001290BD8406B2146826828469047E18807
:10321000014307D12846FFF742FC03E02146284638
:10322000FFF718FC002070BDF0B5002294460A7824
:103230009400025B8A4B1A40CB78002B62D0012BA2
:1032400067D0022B03D0032B5FD001239C46854B14
:103250001A4302530D78AA00865A834C26402E4307
:103260001E438652804D0E7B024630354032002E82
:1032700052D00E78B700C65BBE467C4F26403E4318
:103280007746C653168A0F783618FF00BF190126F5
:10329000B602BE190F897F087F003780128A0E7828
:1032A0001218F600B6185A11B2184E897608760030
:1032B00016804A78002A0A7876D09200865A7604D8
:1032C00004D5865A6A4F26403E4386520A789200B9
:1032D000865A760605D5865A624F264040373E43C9
:1032E00086520A789200865A2640614C26438652BE
:1032F000CA78012A0A7879D09200845A2C40202575
:103300006C40A1E001235B0201E003235B021A434E
:103310009DE701239B02FAE74E78002E24D0128A03
:103320000E781218F600B61801229202B218CE8852
:103330007608760016800A789200865A760605D5B9
:10334000865A2640474C403426438652CA78012A82
:1033500005D009788900425A2A40202444E009789F
:103360008900425A2A4077E0158A0E782D18F60017
:103370007619404D7519CE88760876002E80128A0F
:103380000D781218ED00AA183A4D0127AD1C5519F9
:103390000A69FF03002A08D03E2A0AD85608D20735
:1033A00000D0761CB2020AE021E02A88324E324078
:1033B00004E05609D20600D1761EB2023A432A80B2
:1033C0000A789200855A6D0404D5855A2540284C08
:1033D0002543855209788900425A254CF13C224008
:1033E0000124240362406400624035E029E0920039
:1033F000865A760404D5865A1D4F26403E4386528F
:103400000A789200865A760605D5865A154F2640C8
:1034100040373E4386520A789200865A2640114C25
:103420004034264386520A789200845A104EF13E68
:103430003440012636037440760074401C438452A5
:103440008DE79200845A2C401C43845209788900ED
:10345000425A074CF13C22401A4342526046F0BDAA
:103460008F890000808000008F8F00008081000025
:1034700080C0000004040000FF83000000207047AB
:1034800030B50A7B002A30D14A78194C002A194BF2
:103490000A7814D09200855A6D0605D5855A2540C4
:1034A000144C403425438552CA78012A1DD009782E
:1034B0008900425A0E4C30342240202412E09200FF
:1034C000855A6D0404D5855A25400B4C25438552F9
:1034D00009788900425A084CF13C22400124240317
:1034E0006240640062401A434252002030BD000036
:1034F0008F8F00008080000080C0000010B54A78E7
:103500000978094B8900002A425A03D0074C22400F
:10351000102403E0064C22400124240362401A4395
:103520004252002010BD000080800000BF8F0000CC
:103530008FBF0000F0B50C4605464A782F460023A1
:10354000097B40372669A069012A04D0B04254D9CA
:10355000801BA06153E0B04202D9801BA06101E052
:103560000646A36100290DD020788100695A4906DA
:10357000398A17D54919C0004118524808180680E1
:10358000628917E0B3B2E2882846616900F0CBF89F
:10359000388A21784019C90009184A48001F0818BC
:1035A000068020E04919C00041184648001F08184D
:1035B00006802289B3B22846616900F0B4F86078C9
:1035C000414A002802D0012806D00CE02078800073
:1035D000295A11403D4A04E020788000295A1140C0
:1035E0003B4A1143295220788000295A364A30320A
:1035F00011401022514020225CE00646A3610123C5
:10360000DB03002902D0002A16D027E0388A21786F
:103610004019C90009182B480818002E2FD03E2E3B
:1036200031D97109F20602D002E0890202E0491E96
:1036300089021943018033E0388A21784019C90092
:1036400009182048001F0818002E0DD03E2E0FD854
:103650007108F20700D0491C8902018060780028B7
:10366000D4D0012814D01BE001881A4A114004E08C
:103670007109F20600D1491E89021943EDE701885C
:10368000144A1140D5E77108F207CED0491CCCE7A7
:10369000398A48192178C90009180A48081806808B
:1036A00020788000295A0A4AF13A11400122120377
:1036B000514052005140054A403A114329520020DE
:1036C000F0BD0000060400008F8F0000C0800000E5
:1036D00080C00000FF83000010B50248FDF765FBC5
:1036E00010BD000088060020403080887047801898
:1036F00010B5012292025C088018002C07D00288C5
:103700000A70120A4A70801C891C641EF7D1DA07FD
:1037100001D00088087010BD002902D180214030FE
:10372000818100207047801801225B1C920210B535
:103730005B088018002B08D04A780C7812022243CC
:103740000280801C891C5B1EF6D110BD024801213D
:1037500001700078704700001800002001207047B9
:103760000020704702480121017000787047000076
:1037700018000020002070470FB410B504A9074BB3
:1037800002AA039800F064F8044602A9002000F0A1
:1037900007F9204610BC08BC04B01847A13900083E
:1037A000F8B5040C8BB2264682B25E430D0C10466F
:1037B000370C5843360480190021794116466E4370
:1037C000370C36048019794126466E438919F8BDB5
:1037D00030B47446641E2578641CAB4200D21D468A
:1037E000635D5B00E31830BC184700008307FF22CD
:1037F000DB0E9A408907090E9940002808DB8308F0
:1038000009489B001818036893430B4303607047F3
:103810000007000F0838830804489B001818C36984
:1038200093430B43C361704700E400E000ED00E008
:1038300002E008C8121F08C1002AFAD17047704779
:10384000002001E001C1121F002AFBD170470000D7
:10385000FFB58DB00446002506E025280AD0109A51
:103860000F999047641C6D1C20780028F5D12846DC
:1038700011B0F0BD00270121484A009700E007433E
:10388000641C23780846203B98401042F7D12078EA
:103890002E2817D1042007436078641C2A280CD1F5
:1038A0000E98641C02C800910E900BE000990A2249
:1038B000514330394018641C00902078014630395B
:1038C0000929F3D920780028D1D0642808D06928A4
:1038D00006D075281ED0109A0F9990476D1C5BE09A
:1038E0000A200E99019001C90E91002802DA404287
:1038F0002D2102E0390504D52B216A4611720121E0
:1039000003E0F90704D02021F7E70BAE0B910DE09F
:103910000021FAE70A200E99019001C90E91F7E7FC
:103920000199FCF721FC3031761E31700028F7D167
:1039300003A8801B20300190780701D5009801E092
:10394000012000900199884201DD401A00E000202A
:103950000027009006E002A8109AC05D0F999047DA
:103960006D1C7F1C0B988742F5DB04E0109A302019
:103970000F9990476D1C0099481E00900029F5DCB6
:1039800005E03078109A761C0F9990476D1C0199CC
:10399000481E01900029F4DC641C65E70928010039
:1039A0000A68531C0B601070704700000EB5FDF7DD
:1039B000C3F8FEF70DFAFEF7D7FDFEF71BFBFEF787
:1039C0004BFCFEF7F1FBFEF707FBFEF7ABFBFEF748
:1039D000CFFAFEF7D3FBFEF70DFC00F09DF822486E
:1039E000012306C821A000F08DF900F001F90020A4
:1039F00000F080F8FF25F5352846FCF7D1FD1D4C79
:103A0000002000F077F80021012000F0EBF806CC50
:103A1000012319A0083C00F075F900F0E9F82846E8
:103A2000FCF7BEFD0020FEF77FFA0646002000F0FE
:103A300061F8324613A16846FFF79EFE002101207F
:103A400000F0D0F806CC01230FA0083C00F05AF992
:103A500006CC01236846083C00F054F900F0C8F891
:103A60002846FCF79DFDCBE70800002074657374C1
:103A700039000000100000205363616E6E696E67AC
:103A80002E2E2E0025690000526573756C743A0065
:103A9000064841680968002905D04168C968C968B5
:103AA0004968016370470021C943FAE774000020A8
:103AB00030B5802815D2402913D20C4B1B79002B2E
:103AC00002D0002A0ED000224C070123640FA3402D
:103AD000C908074DC9010818295C012A04D0994377
:103AE000295430BD0122EFE71943F9E70000002017
:103AF000B400002010B50021064B0124A4020028C8
:103B000005D0FF225A54491CA142F8D310BD00220F
:103B1000F8E70000B400002010B56420FCF740FD79
:103B2000AE2000F0CBF8202000F0C8F8002000F014
:103B3000C5F8B02000F0C2F8C02000F0BFF80020A7
:103B400000F0BCF8102000F0B9F8402000F0B6F802
:103B5000812000F0B3F8FF2000F0B0F8A02000F0C2
:103B6000ADF8A62000F0AAF8A82000F0A7F83F20A2
:103B700000F0A4F8A42000F0A1F8D32000F09EF8F3
:103B8000002000F09BF8D52000F098F8F02000F01D
:103B900095F8D92000F092F8222000F08FF8DA2072
:103BA00000F08CF8122000F089F8DB2000F086F895
:103BB000202000F083F88D2000F080F8142000F021
:103BC0007DF8AF2000F07AF80020FFF793FF00F0B7
:103BD0000FF803480021018041800121417110BD8F
:103BE00000000020014A1080518070470000002032
:103BF00070B50B4D00242046B030C0B200F05EF826
:103C0000002000F05BF8102000F058F8E0014019A7
:103C1000802100F067F8641CE4B2082CEBD370BD7F
:103C2000B4000020FFB582B00298203800905F28D1
:103C30000BD221486A460188177BC919802904D80C
:103C40004088567B8019402802D9002006B0F0BD7C
:103C5000002526E000980499704340194000085A56
:103C6000002401901AE00198A040000408D51248F1
:103C7000059A8178007849190019C9B2C0B20AE0E2
:103C80000598002815D000220B4881780078491942
:103C90000019C9B2C0B2FFF70BFF641CA742E2D8FB
:103CA0006D1CAE42D6D804480188C919018002981B
:103CB000CCE70122E8E700000000002001B584B055
:103CC00000220121D24304A80B46029201910090E8
:103CD000002278210248FCF71DFE05B000BD00005F
:103CE000F40400200EB50022D24389B20292019161
:103CF00000900123402278210148FCF70BFE0EBD05
:103D0000F4040020F0B51D460E46174604460AE0AE
:103D10002B463A463146FFF785FF2178884201D08D
:103D2000C8B2F0BD641C20780028F1D1C0B2F0BD4B
:103D30004368826801699A60836842685A604A6889
:103D4000824201D182684A60002202610868401EF6
:103D500008600868704742684A6093688B6093689F
:103D60005960916008610168491C0160704700005A
:103D700010B5134B986B002802D00120586210BD7B
:103D80000020586298690F4902E0002815D0401EB3
:103D9000142242438A58002AF7D014224243511871
:103DA0004A680C46526808344A60A24201D15268FF
:103DB0004A60D1681960986110BD72B6FEE70000D4
:103DC0007400002048090020F8B52C4F0026B86B7D
:103DD000002808D0386A401C3862786A002800D071
:103DE00001263046F8BD7D696D1C7D610ED1786875
:103DF0000068002801D072B6FEE77868B96879607B
:103E0000B860B86A401CB862FFF742FE386B854262
:103E10000AD378680068002810D07868C068C46841
:103E2000606885420DD2386338681421C06A4843FF
:103E3000134908580128D0D90126CEE70020C043F5
:103E4000F1E7201DFFF774FFA06A002803D0204689
:103E50001830FFF76DFFE06AB969884200D9B86190
:103E60001421484306494018211DFFF774FFE06AFA
:103E70003968C96A8842CCD30126CAE77400002099
:103E800048090020000000000000000000000000C1
:103E900000000000000000000010001000100010E2
:103EA0000010001000000010000000000028002892
:103EB00000280000000000000000000000000000DA
:103EC00000240024007C00240048007C00480048B6
:103ED0000000000000380054005000380014005466
:103EE000005400380010000000200054005800303A
:103EF00000280054001400080000000000100028F2
:103F00000028001000340048004800340000000081
:103F10000010001000100000000000000000000071
:103F200000000000000800100020002000200020F9
:103F300000200020001000080020001000080008E9
:103F400000080008000800080010002000100038D9
:103F50000010002800000000000000000000000029
:103F60000000000000100010007C00100010000095
:103F70000000000000000000000000000000000041
:103F80000000001000100010000000000000000001
:103F900000000038000000000000000000000000E9
:103FA0000000000000000000000000100000000001
:103FB0000008000800100010001000100020002071
:103FC0000000000000380044004400540044004455
:103FD00000440038000000000010003000500010C5
:103FE0000010001000100010000000000038004415
:103FF00000440004000800100020007C00000000C5
:104000000038004400040018000400040044003894
:104010000000000000080018002800280048007C6C
:104020000008000800000000007C0040004000780C
:104030000004000400440038000000000038004480
:1040400000400078004400440044003800000000B4
:10405000007C000400080010001000200020002058
:1040600000000000003800440044003800440044D0
:1040700000440038000000000038004400440044C0
:10408000003C000400440038000000000000000074
:104090000010000000000000000000100000000000
:1040A00000000000000000100000000000000010F0
:1040B0000010001000000000000C00300040003034
:1040C000000C000000000000000000000000007C68
:1040D0000000007C00000000000000000000000064
:1040E00000600018000400180060000000000000DC
:1040F0000038004400040008001000100000001008
:104100000000000000380044004C0054005C0040F7
:10411000004000380000000000100028002800289F
:104120000028007C004400440000000000780044A7
:10413000004400780044004400440078000000007F
:104140000038004400400040004000400044003877
:104150000000000000700048004400440044004497
:104160000048007000000000007C00400040007C1F
:10417000004000400040007C00000000007C004047
:104180000040007800400040004000400000000077
:104190000038004400400040005C00440044003807
:1041A00000000000004400440044007C004400443F
:1041B000004400440000000000380010001000100F
:1041C000001000100010003800000000000400047F
:1041D0000004000400040004004400380000000053
:1041E000004400480050006000500048004800446F
:1041F000000000000040004000400040004000403F
:104200000040007C000000000044006C006C005482
:1042100000440044004400440000000000440064E6
:10422000006400540054004C004C004400000000A6
:104230000038004400440044004400440044003876
:104240000000000000780044004400440078004072
:1042500000400040000000000038004400440044DA
:10426000004400440054003800040000007800447A
:10427000004400440078004800480044000000006A
:1042800000380044004000300008000400440038BA
:1042900000000000007C0010001000100010001052
:1042A00000100010000000000044004400440044DE
:1042B0000044004400440038000000000044004472
:1042C0000044002800280028001000100000000012
:1042D00000440044005400540054006C002800289E
:1042E00000000000004400280028001000100028F2
:1042F000002800440000000000440044002800287A
:10430000001000100010001000000000007C0004ED
:1043100000080010001000200040007C0000000099
:104320000018001000100010001000100010001005
:1043300000100018002000200010001000100010D5
:1043400000080008000000000030001000100010FD
:1043500000100010001000100010003000100028A5
:1043600000280044000000000000000000000000E1
:10437000000000000000000000000000000000003D
:10438000000000FE002000100000000000000000FF
:1043900000000000000000000000000000380044A1
:1043A000003C0044004C003400000000004000408D
:1043B00000580064004400440064005800000000FD
:1043C0000000000000380044004000400044003875
:1043D00000000000000400040034004C00440044CD
:1043E000004C0034000000000000000000380044D1
:1043F000007C00400044003800000000000C001069
:10440000007C0010001000100010001000000000E0
:10441000000000000034004C00440044004C003414
:10442000000400780040004000580064004400444C
:104430000044004400000000001000000070001064
:10444000001000100010001000000000001000001C
:10445000007000100010001000100010001000E0AC
:1044600000400040004800500060005000480044F8
:10447000000000000070001000100010001000107C
:104480000010001000000000000000000078005440
:1044900000540054005400540000000000000000CC
:1044A0000058006400440044004400440000000040
:1044B000000000000038004400440044004400387C
:1044C00000000000000000000058006400440044A8
:1044D0000064005800400040000000000034004C20
:1044E00000440044004C00340004000400000000BC
:1044F0000058006400400040004000400000000000
:10450000000000000038004400300008004400387B
:104510000000000000200020007800200020002083
:1045200000200018000000000000000000440044CB
:1045300000440044004C0034000000000000000073
:10454000004400440028002800280010000000005B
:1045500000000000005400540054006C00280028A3
:1045600000000000000000000044002800100010BF
:104570000028004400000000000000000044004447
:10458000002800280010001000100060000000004B
:10459000007C0008001000200040007C00000000AB
:1045A0000018001000100010002000200010001063
:1045B0000010001800100010001000100010001073
:1045C000001000100010001000300010001000104B
:1045D000000800080010001000100030000000006B
:1045E00000000074004C000000000000000000000B
:1045F00000000000000000000000000000000000BB
:1046000000200020002000200020000000200000EA
:1046100000500050005000000000000000000000AA
:104620000050005000F8005000F80050005000000A
:104630000020007800A00070002800F0002000009A
:1046400000C000C8001000200040009800180000C2
:10465000004000A000A0004000A8009000680000FA
:10466000003000300020004000000000000000008A
:10467000001000200040004000400020001000001A
:10468000004000200010001000100020004000003A
:10469000002000A8007000F8007000A800200000B2
:1046A00000000020002000F8002000200000000092
:1046B000000000000000000000300030002000007A
:1046C00000000000000000F80000000000000000F2
:1046D000000000000000000000000030003000007A
:1046E00000000008001000200040008000000000D2
:1046F00000700088009800A800C8008800700000C2
:104700000020006000200020002000200070000039
:1047100000700088000800700080008000F8000031
:1047200000F8000800100030000800880070000049
:10473000001000300050009000F800100010000041
:1047400000F8008000F000080008008800700000F9
:1047500000380040008000F00088008800700000F1
:1047600000F8000800080010002000400080000051
:1047700000700088008800700088008800700000C9
:1047800000700088008800780008001000E0000039
:1047900000000000002000000020000000000000D9
:1047A0000000000000200000002000200040000069
:1047B0000008001000200040002000100008000049
:1047C0000000000000F8000000F8000000000000F9
:1047D00000400020001000080010002000400000F1
:1047E0000070008800080030002000000020000059
:1047F0000070008800A800B800B0008000780000B9
:10480000002000500088008800F800880088000020
:1048100000F00088008800F00088008800F00000A8
:104820000070008800800080008000880070000018
:1048300000F00088008800880088008800F00000F0
:1048400000F80080008000F00080008000F8000088
:1048500000F80080008000F00080008000800000F0
:1048600000780088008000800098008800780000B0
:1048700000880088008800F8008800880088000010
:1048800000700020002000200020002000700000A8
:1048900000380010001000100010009000600000B0
:1048A0000088009000A000C000A0009000880000D8
:1048B00000800080008000800080008000F8000000
:1048C000008800D800A800A800A800880088000080
:1048D0000088008800C800A80098008800880000B0
:1048E0000070008800880088008800880070000040
:1048F00000F00088008800F0008000800080000048
:10490000007000880088008800A8009000680000FF
:1049100000F00088008800F000A0009000880000EF
:10492000007000880080007000080088007000009F
:1049300000F800A800200020002000200020000037
:1049400000880088008800880088008800700000C7
:10495000008800880088008800880050002000003F
:1049600000880088008800A800A800A80050000067
:104970000088008800500020005000880088000057
:104980000088008800500020002000200020000047
:1049900000F80008001000700040008000F80000DF
:1049A00000780040004000400040004000780000D7
:1049B00000000080004000200010000800000000FF
:1049C00000780008000800080008000800780000CF
:1049D00000200050008800000000000000000000DF
:1049E00000000000000000000000000000F80000CF
:1049F00000600060002000100000000000000000C7
:104A000000000000006000100070009000780000BE
:104A10000080008000B000C8008800C800B000001E
:104A20000000000000700088008000880070000016
:104A300000080008006800980088009800680000DE
:104A4000000000000070008800F800800070000086
:104A5000001000280020007000200020002000002E
:104A60000000000000700098009800680008000036
:104A70000080008000B000C8008800880088000026
:104A800000200000006000200020002000700000D6
:104A900000100000001000100010009000600000E6
:104AA00000800080009000A000C000A000900000E6
:104AB0000060002000200020002000200070000086
:104AC0000000000000D000A800A800A800A8000076
:104AD0000000000000B000C80088008800880000C6
:104AE000000000000070008800880088007000004E
:104AF0000000000000B000C800C800B00080000046
:104B0000000000000068009800980068000800009D
:104B10000000000000B000C800800080008000009D
:104B200000000000007800800070000800F0000025
:104B30000020002000F800200020002800100000C5
:104B400000000000008800880088009800680000CD
:104B5000000000000088008800880050002000004D
:104B6000000000000088008800A800A80050000095
:104B70000000000000880050002000500088000065
:104B8000000000000088008800780008008800000D
:104B90000000000000F800100020004000F80000B5
:104BA0000010002000200040002000200010000025
:104BB0000020002000200000002000200020000035
:104BC00000400020002000100020002000400000D5
:104BD000004000A8001000000000000000000000DD
:104BE0000008000404000400080002000100008026
:104BF000004000200000000000000000010203044B
:104C00000607080900000000010203042C4C0008FC
:104C100000000020B400000030380008E04C00081C
:104C2000B4000020840F000040380008000000009D
:104C30000000000006080000F0450008070A000018
:104C4000843E0008010000004D3700086537000869
:104C500061370008753700085D3700080000000064
:104C600000000000000000000004004800040048AC
:104C700000040048000000480000004800140048FC
:104C800000140048000800480008004800080048D8
:104C900001000000040000000000000000127A0083
:104CA0000000000000000000000000000000000004
:104CB00000000000000000000000000000000000F4
:104CC00000000000000000000000000000000000E4
:104CD00000000000000000000000000000000000D4
:04000005080000C12E
:00000001FF
